:0A0CEC0000010202030304040505E1
:1005A300E4F513F512F511F510F51BF51AF519F528
:1005B30018C203C200C202C2011207AA43B2020058
:1005C30000000000438002000000000043B401006B
:1005D30000000000000000000053B4FD0000000014
:1005E300007E017F008E238F24752B01752C1275DD
:1005F300210175221C752901752A3C752D01752E63
:100603005C90E680E030E70E85212585222685294A
:1006130027852A28800C852925852A268521278553
:100623002228EE54E0700302074375140075158009
:100633007E017F008E168F17C374EC9FFF74019E9B
:10064300CF2402CF3400FEE48F0F8E0EF50DF50C90
:10065300F50BF50AF509F508AF0FAE0EAD0DAC0CB1
:10066300AB0BAA0AA909A808C3120B7E502AE515E9
:10067300250BF582E514350AF58374CDF0E4FAF918
:10068300F8E50B2401F50BEA350AF50AE93509F516
:1006930009E83508F50880C0E4F50BF50AF509F516
:1006A30008AF0FAE0EAD0DAC0CAB0BAA0AA909A88F
:1006B30008C3120B7E5037E517250BF582E5163577
:1006C3000AF583E0FFE515250BF582E514350AF5F8
:1006D30083EFF0E4FAF9F8E50B2401F50BEA350AA8
:1006E300F50AE93509F509E83508F50880B38514F5
:1006F3002385152474002480FF740134FFFEC3E5B1
:100703002C9FF52CE52B9EF52BC3E5269FF526E5BF
:10071300259EF525C3E5289FF528E5279EF527C3E4
:10072300E5229FF522E5219EF521C3E52A9FF52ABF
:10073300E5299EF529C3E52E9FF52EE52D9EF52D82
:10074300D2E843D82090E668E04409F090E65CE004
:10075300443DF0D2AF90E680E020E105D204120BD5
:10076300B590E680E054F7F0538EF8C203300105EC
:10077300120300C201300329120CFE5024C20312DB
:100783000C3B20001690E682E030E704E020E1EF26
:1007930090E682E030E604E020E0E4120BE4120D80
:0607A30000120D0C80C7DE
:0107A900222D
:1003000090E6B9E0120B8F03CF00047801051103CA
:1003100003290603C90803C30903B70A03BD0B0574
:100320008AFE0585FF0000058F120D0240030205BD
:100330009B90E6BBE024FE602C14604724FD601611
:1003400014603124067066E52390E6B3F0E524904E
:10035000E6B4F002059BE52B90E6B3F0E52C90E6C1
:10036000B4F002059BE52590E6B3F0E52690E6B4EF
:10037000F002059BE52790E6B3F0E52890E6B4F09F
:1003800002059B90E6BAE0FF120C10AA06A9077BB3
:1003900001EA494B600DEE90E6B3F0EF90E6B4F061
:1003A00002059B90E6A0E04401F002059B90E6A0C8
:1003B000E04401F002059B120CCE02059B120CF6E4
:1003C00002059B120AB802059B120CBC02059B1287
:1003D0000D04400302059B90E6B8E0247F602B14D7
:1003E000603C2402600302046EA200E433FF25E0B7
:1003F000FFA202E4334F90E740F0E4A3F090E68AD6
:10040000F090E68B7402F002059BE490E740F0A3C5
:10041000F090E68AF090E68B7402F002059B90E67D
:10042000BCE0547EFF7E00E0D3948040067C007DDB
:100430000180047C007D00EC4EFEED4F24ECF58243
:10044000740C3EF583E493FF3395E0FEEF24A1FFA7
:10045000EE34E68F82F583E0540190E740F0E4A3A8
:10046000F090E68AF090E68B7402F002059B90E62D
:10047000A0E04401F002059B120D06400302059B1B
:1004800090E6B8E024FE601D2402600302059B9004
:10049000E6BAE0B40105C20002059B90E6A0E04484
:1004A00001F002059B90E6BAE0705990E6BCE0547A
:1004B0007EFF7E00E0D3948040067C007D018004B6
:1004C0007C007D00EC4EFEED4F24ECF582740C3E7A
:1004D000F583E493FF3395E0FEEF24A1FFEE34E6CD
:1004E0008F82F583E054FEF090E6BCE05480FF1369
:1004F0001313541FFFE0540F2F90E683F0E04420C5
:10050000F002059B90E6A0E04401F002059B020585
:100510009B120D08400302059B90E6B8E024FE60A4
:10052000232402707690E6BAE0B40104D200806B16
:1005300090E6BAE0B402048062806090E6A0E044F5
:1005400001F0805790E6BCE0547EFF7E00E0D3943B
:100550008040067C007D0180047C007D00EC4EFE26
:10056000ED4F24ECF582740C3EF583E493FF339554
:10057000E0FEEF24A1FFEE34E68F82F583E0440134
:10058000F080188016120968401112088B400C1276
:100590000D0A500790E6A0E04401F090E6A0E04488
:0205A00080F0E9
:0105A2002236
:030033000209FCC3
:0409FC0053D8EF32AB
:100100001201000200000040B404F10000000102EE
:1001100000010A0600020000004001000902200060
:10012000010100A0320904000002FF0000000705E1
:1001300002020002000705860200020009022000F8
:10014000010100A0320904000002FF0000000705C1
:10015000040240000007058802400000040309046F
:100160001003430079007000720065007300730093
:100170007C0345005A002D0055005300420020002A
:100180004600580032002000470050004900460059
:10019000200074006F0020004500780074002000EB
:1001A0004600490046004F002000450078006100ED
:1001B0006D0070006C006500200075007300690020
:1001C0006E0067002000530069006E0067006C003D
:1001D000650020005400720061006E007300610031
:0E01E0006300740069006F006E007300000081
:1007AA0090E6007410F090E602744AF0000000909F
:1007BA00E6037408F000000090E670E04480F00060
:1007CA00000090E6017403F000000090E609E0449E
:1007DA003FF000000090E600E04402F000000090C4
:1007EA00E60B7401F000000090E613F000000090A0
:1007FA00E615F000000090E61274A0F000000090E8
:10080A00E61474E0F000000090E6047480F0000042
:10081A00007402F00000007404F00000007406F096
:10082A000000007408F0000000E4F000000090E608
:10083A0018F00000007410F0000000E490E61AF0CE
:10084A000000007409F000000090E6247402F00031
:10085A000000E490E625F000000090E6307488F08D
:10086A00000000E490E631F000000090E64874844D
:10087A00F0000000F0000000F0000000F0000000AE
:01088A00224B
:010D0C0022C4
:020CFE00D322FF
:020D0000D322FC
:020D0200D322FA
:100AB80090E680E030E71E90E6247402F000000023
:100AC80090E626F0000000E490E625F00000009093
:100AD800E627F0801CE490E624F000000090E6266B
:100AE800F000000090E6257440F000000090E62732
:090AF800F090E6BAE0F51FD322EC
:100CBC0090E740E51FF0E490E68AF090E68B04F0B4
:020CCC00D32231
:080CF60090E6BAE0F51ED322DE
:100CCE0090E740E51EF0E490E68AF090E68B04F0A3
:020CDE00D3221F
:020D0400D322F8
:020D0600D322F6
:020D0800D322F4
:020D0A00D322F2
:1009680090E6047480F00000007402F00000007447
:1009780006F0000000E4F000000090E618F0000027
:10098800007410F0000000E490E61AF00000007413
:1009980009F000000090E6247402F0000000E490E2
:1009A800E625F000000090E6487484F0000000F0AE
:0D09B800000000F0000000F0000000D3225D
:10088B0090E6A3E090E740F090E6A7E090E741F018
:10089B0090E612E090E742F090E618E090E743F024
:1008AB0090E6ABE090E744F090E6ACE090E745F0E3
:1008BB0090E690E090E746F090E691E090E747F005
:1008CB0090E6A5E090E748F090E6A7E090E749F0C6
:1008DB0090E614E090E74AF090E61AE090E74BF0D0
:1008EB0090E6AFE090E74CF090E6B0E090E74DF08B
:1008FB0090E698E090E74EF090E699E090E74FF0A5
:10090B0090F000E090E750F090F001E090E751F0AC
:10091B0090F800E090E752F090F801E090E753F088
:10092B0090FBFEE090E754F090FBFFE090E755F072
:10093B0090FC00E090E756F090FC01E090E757F058
:10094B0090FFFEE090E758F090FFFFE090E759F042
:0D095B00E490E68AF090E68B741AF0D32247
:100C6000C0E0C083C082D2015391EF90E65D740171
:080C7000F0D082D083D0E03205
:100C9000C0E0C083C0825391EF90E65D7404F0D051
:060CA00082D083D0E03297
:100CA600C0E0C083C0825391EF90E65D7402F0D03D
:060CB60082D083D0E03281
:1009C500C0E0C083C08290E680E030E70E85212537
:1009D500852226852927852A28800C852925852A8B
:1009E500268521278522285391EF90E65D7410F026
:0709F500D082D083D0E03274
:100C7800C0E0C083C082D2035391EF90E65D740850
:080C8800F0D082D083D0E032ED
:100B4700C0E0C083C08290E680E030E70E852125B3
:100B5700852226852927852A28800C852925852A07
:100B6700268521278522285391EF90E65D7420F092
:070B7700D082D083D0E032F0
:010D0D0032B3
:010D0E0032B2
:010D0F0032B1
:010D100032B0
:010D110032AF
:010D120032AE
:010D130032AD
:010D140032AC
:010D150032AB
:010D160032AA
:010D170032A9
:010D180032A8
:010D190032A7
:010D1A0032A6
:010D1B0032A5
:010D1C0032A4
:010D1D0032A3
:010D1E0032A2
:010D1F0032A1
:010D200032A0
:010D2100329F
:010D2200329E
:010D2300329D
:010D2400329C
:010D2500329B
:010D2600329A
:010D27003299
:010D28003298
:010D29003297
:010D2A003296
:010D2B003295
:010D2C003294
:010D2D003293
:010D2E003292
:010D2F003291
:010D30003290
:100BE40090E682E030E004E020E60B90E682E0301C
:100BF400E119E030E71590E680E04401F07F147ECF
:0C0C040000120B0190E680E054FEF0228C
:100BB50030040990E680E0440AF0800790E680E082
:100BC5004408F07FDC7E05120B0190E65D74FFF0B2
:0F0BD50090E65FF05391EF90E680E054F7F02246
:020C1000A90732
:100C1200AE2DAF2E8F828E83A3E064037017AD01D9
:100C220019ED7001228F828E83E07C002FFDEC3E55
:080C3200FEAF0580DFE4FEFFC8
:010C3A002297
:100C3B0090E682E044C0F090E681F043870100002B
:040C4B000000002283
:100B01008E1C8F1D90E600E054187012E51D240123
:100B1100FFE4351CC313F51CEF13F51D801590E69A
:100B210000E05418FFBF100BE51D25E0F51DE51C85
:100B310033F51CE51D151DAE1C7002151C4E60051C
:060B4100120C4F80EE22B1
:100C4F007400F58690FDA57C05A3E582458370F9B8
:010C5F002272
:03004300020A00AE
:03005300020A009E
:100A0000020C6000020CA600020C9000020C7800A0
:100A10000209C500020B4700020D0D00020D0E0079
:100A2000020D0F00020D1000020D1100020D120048
:100A3000020D1300020D1400020D1500020D160028
:100A4000020D1700020D0E00020D1800020D190014
:100A5000020D1A00020D1B00020D1C00020D1D00EC
:100A6000020D1E00020D0E00020D0E00020D0E0002
:100A7000020D1F00020D2000020D2100020D2200B8
:100A8000020D2300020D2400020D2500020D260098
:100A9000020D2700020D2800020D2900020D2A0078
:100AA000020D2B00020D2C00020D2D00020D2E0058
:080AB000020D2F00020D3000C1
:03000000020CE00F
:0C0CE000787FE4F6D8FD75812E0205A394
:100B7E00EB9FF5F0EA9E42F0E99D42F0E89C45F0CD
:010B8E002244
:100B8F00D083D082F8E4937012740193700DA3A3F5
:100B9F0093F8740193F5828883E473740293686009
:060BAF00EFA3A3A380DF09
:00000001FF
